:1000000042C0A6C15BC05AC059C058C057C056C0F4
:1000100055C054C053C052C051C050C04FC04EC054
:100020004DC04CC04BC04AC049C048C047C046C084
:1000300045C044C0090212000101008019090400F2
:1000400000000000000012011001FF000008C016AF
:10005000DC050401010200010E03550053004200BB
:100060006100730070001C037700770077002E009A
:10007000660069007300630068006C002E00640075
:1000800065000403090411241FBECFEFD2E0DEBFD8
:10009000CDBF11E0A0E0B1E0E4ECF1E102C00590D9
:1000A0000D92A230B107D9F721E0A2E0B1E001C082
:1000B0001D92AA34B207E1F772D882C8A1CFCF93BC
:1000C000DF9360912801635067FD13C08091250183
:1000D000CCE0D0E0C81BD109C45DDE4F8091240183
:1000E0008D3209F457C08091020187FD9BC01092A8
:1000F00028018091010184FF40C0609100016F3FA1
:1001000009F43BC0693008F46FC068506093000187
:100110008091180198E889278093180168E0809100
:10012000020187FD1DC0409126015091270186FFE5
:1001300070C0A9E1B1E0FA01962F84918D933196B8
:100140009150D9F72FEF260F30E02F5F3F4F240F4C
:10015000351F3093270120932601C4E0C60F4FC0FE
:1001600089E191E0C9D6682F893008F4A0C08FEFEB
:1001700080930001CEE1C093010194E183B18370CB
:1001800031F49150D9F71092290110922301DF9197
:10019000CF910895683009F0AACF83EC80931801BD
:1001A0008AE580930101109202018881807609F02E
:1001B00043C08A81109221019981911147C0109208
:1001C000220121E231E082E03093270120932601D1
:1001D0008F3FA9F19F81911104C09E81981708F467
:1001E000892F8093000183CF109200018091180124
:1001F00098E8892780931801611191CFC4E089E1C3
:1002000091E0A2D0CC3009F4B6CF8FEF80930001FB
:10021000B2CFDA01E9E1F1E0962F8D91819391500F
:10022000E1F790CFCE01E6D68F3FF9F0882309F4AD
:100230005ECF109200015BCFCE019FD4C9CF9881D1
:1002400097FD1DC090E890930201CBCF953089F0C7
:10025000963009F19830D9F0993099F081E09A30D0
:1002600009F080E021E231E0AFCF8EE1809301011F
:100270003ECF8093290121E231E080E0A5CF8E813D
:10028000E1CF80932B0121E231E080E09DCF2BE292
:1002900031E081E099CF9B819130F1F09230A1F073
:1002A000933041F080E090E49093020191CFC4E05C
:1002B000C80FA5CF811118C082E890E09093270164
:1002C0008093260184E0EFCF84E390E090932701B0
:1002D0008093260182E1E7CF86E490E090932701A6
:1002E0008093260182E1DFCF813051F08230D1F658
:1002F00088E590E090932701809326018EE0D3CF8C
:1003000086E690E090932701809326018CE1CBCF85
:10031000E9E6F0E0808183608083E89A0895A82F61
:10032000B92F80E090E041E050EA609530E009C0EC
:100330002D9182279795879510F084279527305E19
:10034000C8F36F5FA8F30895EADF8D939D93089536
:10035000CF93CFB7CF93C395189BE9F7189B09C0EC
:10036000189B07C0189B05C0189B03C0189B01C0B1
:10037000A1C0DF93C0912501DD27C45DDE4F189B2E
:1003800002C0DF91EBCF2F930F931F9303B12FEF99
:1003900000FB20F94F933F9313B14FEF012700FB70
:1003A00021F93BE031C04E7F012F13B1216028C0FD
:1003B000102F4D7F2260000003B129C04B7F2460C5
:1003C000012F000013B12BC013B1477F28602AC052
:1003D0004F7E03B120612CC04F7D13B120622FC02E
:1003E0004F7B03B1206432C0422703B149934FEFE2
:1003F0000000102710FB20F913B11370C9F1297FF9
:1004000091F2012700FB21F903B1237F89F23150DA
:1004100058F1102710FB22F913B1277E79F201273A
:1004200000FB23F92F7C81F203B1102710FB24F984
:100430002F7971F200C013B1012700FB25F92F734A
:1004400059F200C003B1102710FB26F9223040F208
:1004500000C013B1012700FB27F9243028F64F779D
:10046000206813B10000F9CF11E01CBB002717C0B2
:100470003B503195C31BD04011E01CBB0881033CAD
:10048000E9F00B34D9F0209123011981110F1213D7
:10049000EDCF093641F10D3211F0013E39F70093ED
:1004A0002A013F914F911F910F912F91DF91CCB372
:1004B000C0FD51CFCF91CFBFCF91189520912A0188
:1004C000222379F310912801112311F5343012F110
:1004D0003093280120932401109125013BE0311B2A
:1004E0003093250117C00091280101308CF40AE5F2
:1004F0003091010134FD10C000930101C8E1D1E049
:100500000FC02795A8F45150A9F4220F0000F9CF8D
:100510004AE503C042ED01C0432FC4E1D0E032E020
:1005200014B11360289A14B905B120E413E05F9365
:10053000012756E005B9279520F4515021F4220FE8
:10054000F9CF012756E000003B5A05B9D0F22795B4
:1005500028F4515029F4220F0000F9CF012756E06A
:10056000279505B920F4515021F4220FF9CF012726
:1005700056E02991332305B921F60C7F109129010A
:10058000110FC651D04005B911F01093230111E0AD
:100590001CBB016014B11C7F402F4C7F5F9100C0D9
:1005A00000C005B914B945B97CCF582F48E080E0A8
:1005B00057FD18C02B98550F880F1C998F5F2D9AE7
:1005C00036B52091470196B5931B9217E0F32D980D
:1005D00036B52091470196B5931B9217E0F3415031
:1005E00039F708952B9AE7CF8EBD0DB407FEFDCFE6
:1005F0008EB5089521E196958795779567952A950B
:10060000D1F7209146012617D9F060934601E09179
:100610004301F09144018DE40995E0914301F0918B
:10062000440180E00995E0914301F09144018091FB
:1006300046010995E0914301F091440180E009945D
:100640000895809145018CBD809142018DBD089532
:100650008823A1F08830D0F525ED32E030934401B5
:10066000209343018430F1F008F18630C1F030F17D
:100670008730A1F483E080934701089584EF92E0EE
:10068000909344018093430181E08093470182E588
:100690008093450181E080934201089580EC80932E
:1006A0004701089588E1809347010895823051F011
:1006B0008330A1F780E38093470108958CE0809315
:1006C0004701089580E680934701089524EF32E0C2
:1006D00030934401209343011092420191E09093A2
:1006E0004701893059F070F08B3021F08C3079F669
:1006F0009093420181E580934501089582E58093BE
:1007000045010895883019F683E5809345010895E1
:1007100026B59091470186B5821B8917E0F30895AD
:1007200084B18C6284B92A982D9826B5909147019E
:1007300086B5821B8917E0F32A9A26B59091470166
:1007400086B5821B8917E0F32A9880914301909126
:100750004401845F924019F01092460108958091FF
:1007600045018CBD809142018DBD109246010895D6
:1007700084B1837D84B985B1837D85B91CBC08951E
:10078000CF93DF93C0E2E0914301F09144018CEA02
:100790000995E0914301F091440183E50995E091C9
:1007A0004301F091440180E00995D82FE091430185
:1007B000F091440180E00995D33561F11CBC26B568
:1007C0009091470186B5821B8917E0F32A9A26B5D6
:1007D0009091470186B5821B8917E0F32A9826B5C8
:1007E0009091470186B5821B8917E0F38091430100
:1007F00090914401845F924031F0C15021F681E034
:10080000DF91CF910895809145018CBD8091420187
:100810008DBDF3CF80E0DF91CF910895CF92DF922D
:10082000EF92FF926B017C01E5DE8C2D8170880FC9
:10083000880F880FE0914301F0914401806209958F
:10084000D701C60139E0B695A795979587953A9552
:10085000D1F7E0914301F09144010995D701C60118
:10086000B695A79597958795E0914301F09144013E
:100870000995E0914301F091440180E0FF90EF90F1
:10088000DF90CF900994CF92DF92EF92FF920F9377
:100890001F93CF93DF931F92CDB7DEB76B017C011F
:1008A000142F2983A7DE8C2D8170880F880F880F65
:1008B000E0914301F091440180640995D701C6019C
:1008C00059E0B695A795979587955A95D1F7E091F8
:1008D0004301F09144010995D701C601B695A7954A
:1008E00097958795E0914301F09144010995E09136
:1008F0004301F0914401812F099529812223A9F018
:100900001F3789F006B51EE1C701B60187DF8F37B3
:1009100061F486B5801B8D3310F006B511501111AE
:10092000F3CF81E003C08FE0B3D080E00F90DF9180
:10093000CF911F910F91FF90EF90DF90CF9008958E
:10094000CF92DF92EF92FF920F931F93CF93DF939B
:100950001F92CDB7DEB76B017C0149834BDEE0917E
:100960004301F09144018CE40995D701C60179E077
:10097000B695A795979587957A95D1F7E09143011C
:10098000F09144010995D701C601B695A7959795B1
:100990008795E0914301F09144010995E09143016D
:1009A000F091440180E0099549814F3FE1F006B59F
:1009B0001EE1C701B60132DF8F3F99F486B5801B77
:1009C0008D3310F006B511501111F3CF81E00F9067
:1009D000DF91CF911F910F91FF90EF90DF90CF901B
:1009E000089580E0F4CF8FE053D080E0F0CF1F93E4
:1009F000CF93DF931F92CDB7DEB7182FE09143015D
:100A0000F091440180EA99830995E0914301F091C6
:100A100044019981892F0995E0914301F0914401A6
:100A2000812F0995E0914301F091440180E00F90FE
:100A3000DF91CF911F9109941F93CF93DF9300D043
:100A4000CDB7DEB7182FE0914301F091440180EC5F
:100A50006A8399830995E0914301F091440199815A
:100A6000892F0995E0914301F0914401812F099567
:100A7000E0914301F09144016A81862F09958EE14E
:100A800007D080E00F900F90DF91CF911F910895D4
:100A9000882349F030E026B596B5921B9C33E0F3ED
:100AA0003F5F3813F8CF0895259A23982B9A50E288
:100AB00017D05A95E9F70895AC0188E605D0842F40
:100AC00003D089E601D0852F0FD028E030E0382709
:100AD00080FB869506D02A95D1F730FB02D000D056
:100AE000689423982B9A16F02B98239AE09148014A
:100AF000F09149013197F0F72D9AE3B1E3FBE091D2
:100B00004801F09149013197F0F72D98089520ECB4
:100B1000E7DF46F42A95E1F780E02AE1E5DF2A9550
:100B2000E9F7DECF28E030E0DBDF869587F938276C
:100B30002A95D1F7D5DF27F9322772F3D1DFD0CF4D
:100B4000DB01742FB9DF84E2BFDFE1DF8D937A959B
:100B5000D1F70895DB01742FAFDF83EFB5DF8DE1AF
:100B6000B3DF84E6B1DF8D91AFDF82E7ADDFCFDFAA
:100B70008078D9F77A9589F70895CF93DF93EC01C0
:100B80008981813089F1823009F4B0C0833009F461
:100B900063C08430A1F1873009F483C0853009F443
:100BA0000EC1863009F4A6C0883009F4DDC0893052
:100BB00009F40AC18A3009F439C18B3009F469C1DA
:100BC0008C3009F47BC18D3009F48DC18E3009F46D
:100BD0008FC18F3009F409C1803109F42EC18F37DC
:100BE00009F44CC180E02FC0329B58C080910E01A7
:100BF0002FDD10920D01419893DD80E024C080919B
:100C00000D01811112C04B8150E0542F44278A817D
:100C1000482B662757FD6095762F40930901509326
:100C20000A0160930B0170930C018F8190E0982F63
:100C300088272E81822B909308018093070182E000
:100C400080930F018FEF20E131E030932701209353
:100C50002601DF91CF910895E0914301F091440185
:100C60008A81099580931001E0914301F09144013C
:100C70008B81099580931101E0914301F09144012A
:100C80008C81099580931201E0914301F091440118
:100C90008D8109958093130184E0D5CF85E0D8DC60
:100CA000A8CF80910D01811112C04B8150E0542FCB
:100CB00044278A81482B662757FD6095762F4093FD
:100CC000090150930A0160930B0170930C018F810D
:100CD00090E0982F88272E81822B90930801809393
:100CE000070183E080930F018FEFADCF41DD419A83
:100CF00080E0A9CF80910D01811112C08B8190E01D
:100D0000982F88272A81822BAA2797FDA095BA2F92
:100D10008093090190930A01A0930B01B0930C01F9
:100D20003C812D81822F8F7080930401822F807FE0
:100D300040E1849FC0011124830F911D909306010F
:100D40008093050120FD809303018F8190E0982F0F
:100D500088272E81822B909308018093070181E0E0
:100D600080930F018FEF6FCF80910D01811112C021
:100D70008B8190E0982F88272A81822BAA2797FDC4
:100D8000A095BA2F8093090190930A01A0930B01BB
:100D9000B0930C011092060110920501109204010B
:100DA0008F8190E0982F88272E81822B90930801C5
:100DB0008093070184E080930F018FEF44CFE0DC44
:100DC0008093100181E03FCF81E080930D018A8103
:100DD0009B81AC81BD818093090190930A01A0930E
:100DE0000B01B0930C0180E02ECF8B8190E0982F07
:100DF00088272A81822BAA2797FDA095BA2F809356
:100E0000090190930A01A0930B01B0930C018F810B
:100E100090E0982F88272E81822B90930801809351
:100E2000070185E080930F018FEF0DCF8A818093BA
:100E30000E011092100181E006CF8B8190E0982F77
:100E400088272A81822BAA2797FDA095BA2F809305
:100E5000090190930A01A0930B01B0930C018F81BB
:100E600090E0982F88272E81822B90930801809301
:100E7000070186E080930F018FEFE5CE81E080933C
:100E8000100110921101109212011092130184E0CE
:100E9000DACE8B8190E0982F88272A81822B90933D
:100EA0004901809348012A9A229A83E0F1DD2A9829
:100EB000419880E1EDDDF8DD80E0C5CE80EC04DE18
:100EC00080E002DE8AE0E4DD2A9A85E0E1DD2A980E
:100ED00085E0DEDD84B1837D84B985B1837D85B90C
:100EE000419A80E0B0CE13DE8093100181E0ABCE5A
:100EF0008A81EADD80E0A7CEEF92FF920F931F93E5
:100F0000CF93DF93E62E50910F012EEF250F223065
:100F100058F0553009F451C08FEFDF91CF911F91F8
:100F20000F91FF90EF9008956623E9F16091090118
:100F300070910A0140910B0120910C01EC01F12C00
:100F400020C0CB0154DD88830091090110910A0172
:100F500020910B0130910C010F5F1F4F2F4F3F4F1E
:100F60000093090110930A0120930B0130930C01A7
:100F7000F3942196FE1461F050910F01B801422FB5
:100F8000232F5230F1F6842F922F48DC8883DCCF58
:100F900087E08F1540F48F2DDF91CF911F910F9136
:100FA000FF90EF90089510920F018E2DDF91CF9159
:100FB0001F910F91FF90EF900895462FBC018091F3
:100FC000090190910A01BCDD0091090110910A010B
:100FD00020910B0130910C010E0D111D211D311DB1
:100FE0000093090110930A0120930B0130930C0127
:100FF0008E2D93CFDF92EF92FF920F931F93CF939B
:10100000DF939C01F62E40910F01413071F0443086
:1010100061F0463009F496C08FEFDF91CF911F91B8
:101020000F91FF90EF90DF900895FF2009F4B5C075
:101030005091090170910A0180910B0190910C016E
:10104000E901E12CD12C50C020910501309106011D
:10105000232B09F054C021E04881652F14DC209136
:101060000701309108012150310930930801209384
:101070000701232BE1F410920F018091040181FFFD
:101080003BC02091030130E0809105019091060161
:101090002817390789F16091090170910A0180913F
:1010A0000B0190910C0148814BDCDD24D39400911D
:1010B000090110910A0120910B0130910C010F5F81
:1010C0001F4F2F4F3F4F0093090110930A012093A8
:1010D0000B0130930C01E3942196EF1451F14091F0
:1010E0000F01502F712FC901413009F4ADCF688134
:1010F000852F972FA1DCB3CFDD24D394D8CF20E068
:101100004881652FC0DB80910301815080930301EA
:101110008111A5CF6091090170910A0180910B01A5
:1011200090910C0148810CDC8091050180930301B2
:1011300096CF8D2DDF91CF911F910F91FF90EF9062
:10114000DF900895462FBC018091090190910A011A
:1011500001DD8091090190910A01A0910B01B091EC
:101160000C018F0D911DA11DB11D8093090190935C
:101170000A01A0930B01B0930C018091070190919B
:1011800008018F1991099093080180930701892B19
:1011900021F410920F0181E040CF80E03ECF1BB8D8
:1011A00015B88BEF8AB98FEF84B914B883E087B98B
:1011B0009EEF98B985BDACD8789481D780D7FDCF04
:0411C000F894FFCFD1
:0211C400FF5AD0
:00000001FF
