:1000000042C0CAC15BC05AC059C058C057C056C0D0
:1000100055C054C053C052C051C050C04FC04EC054
:100020004DC04CC04BC04AC049C048C047C046C084
:1000300045C044C0090212000101008019090400F2
:1000400000000000000012011001FF000008C016AF
:10005000DC050401010200010E03550053004200BB
:100060006100730070001C037700770077002E009A
:10007000660069007300630068006C002E00640075
:1000800065000403090411241FBECFEFD4E0DEBFD6
:10009000CDBF11E0A0E0B1E0ECE7F8E102C00590CF
:1000A0000D92A430B107D9F721E0A4E0B1E001C07E
:1000B0001D92AE34B207E1F7CEDBDECBA1CFCF93FA
:1000C000DF9360912C01635067FD13C0809129017B
:1000D000CCE0D0E0C81BD109C05DDE4F8091280183
:1000E0008D3209F461C08091040187FDB0C0109287
:1000F0002C018091020184FF4AC0809100019091FF
:1001000001018F3F2FEF920709F441C0893091051B
:1001100008F479C0089790930101809300018091C1
:100120001C0198E8892780931C0168E080910401F4
:1001300087FD1DC040912A0150912B0186FF7EC092
:10014000ADE1B1E0FA01962F24912D9331969150B3
:10015000D9F72FEF260F30E02F5F3F4F240F351FC9
:1001600030932B0120932A01C4E0C60F5AC08DE1C1
:1001700091E0E4D8682F893008F4B8C08FEF9FEF82
:100180009093010180930001CEE1C093020194E1BC
:1001900083B1837031F49150D9F710922D011092F0
:1001A0002701DF91CF910895683009F0A0CF83EC4B
:1001B00080931C018AE580930201109204018881DA
:1001C000807609F050C09A811092250189818111B1
:1001D00054C01092260125E231E082E090E0309395
:1001E0002B0120932A018F3F2FEF920709F43EC085
:1001F0002E813F812817390708F4C9019093010126
:100200008093000174CF109201011092000190912F
:100210001C0128E8922790931C01682F811186CF3A
:10022000C4E08DE191E0B4D0CC3009F4AECF8FEFD3
:100230009FEF9093010180930001A7CFDA01EDE1D8
:10024000F1E0962F2D9121939150E1F782CFCE01CD
:1002500092D98F3F21F1882309F449CF10920101EF
:100260001092000144CFCE0196D5BDCF288127FD45
:1002700021C020E820930401C1CF8530A1F0863051
:1002800041F1883009F18930C1F031E020E08A3055
:1002900009F030E0832F922F25E231E0A0CF8EE1EC
:1002A0008093020124CF90932D0125E231E080E07C
:1002B00090E095CF8E819F81DCCF90932F0125E236
:1002C00031E080E090E08BCF2FE231E081E090E000
:1002D00086CF8B81813009F18230B1F0833049F0D3
:1002E00080E090E020E4209304017DCFC4E0C80FBB
:1002F00098CF91111BC082E890E090932B018093DE
:100300002A0184E090E0EECF84E390E090932B010B
:1003100080932A0182E190E0E5CF86E490E090931B
:100320002B0180932A0182E190E0DCCF913059F0DB
:100330009230B1F688E590E090932B0180932A01EA
:100340008EE090E0CFCF86E690E090932B018093F3
:100350002A018CE190E0C6CFE9E6F0E0808183607D
:100360008083E89A0895A82FB92F80E090E041E0BB
:1003700050EA609530E009C02D91822797958795C6
:1003800010F084279527305EC8F36F5FA8F30895B7
:10039000EADF8D939D930895CF93CFB7CF93C39505
:1003A000189BE9F7189B09C0189B07C0189B05C04C
:1003B000189B03C0189B01C0A1C0DF93C091290105
:1003C000DD27C05DDE4F189B02C0DF91EBCF2F937E
:1003D0000F931F9303B12FEF00FB20F94F933F932F
:1003E00013B14FEF012700FB21F93BE031C04E7FF5
:1003F000012F13B1216028C0102F4D7F2260000013
:1004000003B129C04B7F2460012F000013B12BC022
:1004100013B1477F28602AC04F7E03B120612CC0F2
:100420004F7D13B120622FC04F7B03B1206432C0D7
:10043000422703B149934FEF0000102710FB20F92A
:1004400013B11370C9F1297F91F2012700FB21F943
:1004500003B1237F89F2315058F1102710FB22F9A4
:1004600013B1277E79F2012700FB23F92F7C81F25B
:1004700003B1102710FB24F92F7971F200C013B1DA
:10048000012700FB25F92F7359F200C003B1102793
:1004900010FB26F9223040F200C013B1012700FB07
:1004A00027F9243028F64F77206813B10000F9CFE0
:1004B00011E01CBB002717C03B503195C31BD04037
:1004C00011E01CBB0881033CE9F00B34D9F020910A
:1004D00027011981110F1213EDCF093641F10D32A9
:1004E00011F0013E39F700932E013F914F911F917A
:1004F0000F912F91DF91CCB3C0FD51CFCF91CFBFE2
:10050000CF91189520912E01222379F310912C017F
:10051000112311F5343012F130932C01209328016E
:10052000109129013BE0311B3093290117C0009144
:100530002C0101308CF40AE53091020134FD10C029
:1005400000930201CCE1D1E00FC02795A8F45150EF
:10055000A9F4220F0000F9CF4AE503C042ED01C023
:10056000432FC4E1D0E032E014B11360289A14B9EB
:1005700005B120E413E05F93012756E005B9279504
:1005800020F4515021F4220FF9CF012756E000004A
:100590003B5A05B9D0F2279528F4515029F4220F7F
:1005A0000000F9CF012756E0279505B920F45150F6
:1005B00021F4220FF9CF012756E02991332305B901
:1005C00021F60C7F10912D01110FC651D04005B9B5
:1005D00011F01093270111E01CBB016014B11C7FC6
:1005E000402F4C7F5F9100C000C005B914B945B9D8
:1005F0007CCF582F48E080E057FD18C02B98550F4E
:10060000880F1C998F5F2D9A36B520914B0196B5B6
:10061000931B9217E0F32D9836B520914B0196B5B8
:10062000931B9217E0F3415039F708952B9AE7CFC7
:100630008EBD0DB407FEFDCF8EB5089521E19695D0
:100640008795779567952A95D1F720914A012617C6
:10065000D9F060934A01E0914701F09148018DE49F
:100660000995E0914701F091480180E00995E091FA
:100670004701F091480180914A010995E0914701B5
:10068000F091480180E009940895809149018CBD62
:10069000809146018DBD08958823A1F08830D0F562
:1006A00029EF32E030934801209347018430F1F084
:1006B00008F18630C1F030F18730A1F483E08093F7
:1006C0004B01089588E193E090934801809347019E
:1006D00081E080934B0182E58093490181E0809322
:1006E0004601089580EC80934B01089588E1809342
:1006F0004B010895823051F08330A1F780E380935D
:100700004B0108958CE080934B01089580E680931F
:100710004B01089528E133E03093480120934701CD
:100720001092460191E090934B018B3059F090F478
:10073000883061F0893079F682E580934901089527
:100740009093460181E580934901089583E5809364
:10075000490108958C30A1F38D3009F0BCCF80E5BC
:1007600080934901089526B590914B0186B5821B6F
:100770008917E0F3089584B18C6284B92A982D9882
:1007800026B590914B0186B5821B8917E0F32A9A12
:1007900026B590914B0186B5821B8917E0F32A9804
:1007A00080914701909148018851934019F010922F
:1007B0004A010895809149018CBD809146018DBD0B
:1007C00010924A01089584B18C6284B980914701E6
:1007D000909148018851934011F02A9A0895809190
:1007E00049018CBD809146018DBD2A9A089584B13E
:1007F000837D84B985B1837D85B91CBC0895CF9371
:10080000DF93C0E2E0914701F09148018CEA09953D
:10081000E0914701F091480183E50995E091470196
:10082000F091480180E00995D82FE0914701F091BF
:10083000480180E00995D33561F11CBC26B5909143
:100840004B0186B5821B8917E0F32A9A26B5909151
:100850004B0186B5821B8917E0F32A9826B5909143
:100860004B0186B5821B8917E0F380914701909177
:1008700048018851934031F0C15021F681E0DF9169
:10088000CF910895809149018CBD809146018DBD25
:10089000F3CF80E0DF91CF910895CF92DF92EF9276
:1008A000FF926B017C01CADE8C2D8170880F880F4E
:1008B000880FE0914701F091480180620995D701C6
:1008C000C60139E0B695A795979587953A95D1F7E2
:1008D000E0914701F09148010995D701C601B6950D
:1008E000A79597958795E0914701F0914801099563
:1008F000E0914701F091480180E0FF90EF90DF9098
:10090000CF900994CF92DF92EF92FF920F931F93B3
:10091000CF93DF931F92CDB7DEB76B017C01142F0D
:1009200029838CDE8C2D8170880F880F880FE091D1
:100930004701F091480180640995D701C60159E04B
:10094000B695A795979587955A95D1F7E091470168
:10095000F09148010995D701C601B695A7959795DD
:100960008795E0914701F09148010995E091470191
:10097000F0914801812F099529812223A9F01F3781
:1009800089F006B51EE1C701B60187DF8F3761F434
:1009900086B5801B8D3310F006B511501111F3CFC1
:1009A00081E003C08FE0B3D080E00F90DF91CF9162
:1009B0001F910F91FF90EF90DF90CF900895CF920D
:1009C000DF92EF92FF920F931F93CF93DF931F92CB
:1009D000CDB7DEB76B017C01498330DEE091470182
:1009E000F09148018CE40995D701C60179E0B695EC
:1009F000A795979587957A95D1F7E0914701F09162
:100A000048010995D701C601B695A7959795879591
:100A1000E0914701F09148010995E0914701F0917B
:100A2000480180E0099549814F3FE1F006B51EE19C
:100A3000C701B60132DF8F3F99F486B5801B8D3335
:100A400010F006B511501111F3CF81E00F90DF9136
:100A5000CF911F910F91FF90EF90DF90CF9008956D
:100A600080E0F4CF8FE053D080E0F0CF1F93CF939E
:100A7000DF931F92CDB7DEB7182FE0914701F091B9
:100A8000480180EA99830995E0914701F091480176
:100A90009981892F0995E0914701F0914801812FB3
:100AA0000995E0914701F091480180E00F90DF91B6
:100AB000CF911F9109941F93CF93DF9300D0CDB7AF
:100AC000DEB7182FE0914701F091480180EC6A836E
:100AD00099830995E0914701F09148019981892F07
:100AE0000995E0914701F0914801812F0995E09126
:100AF0004701F09148016A81862F09958EE107D060
:100B000080E00F900F90DF91CF911F91089588237F
:100B100049F030E026B596B5921B9C33E0F33F5F79
:100B20003813F8CF0895259A23982B9A50E217D0BE
:100B30005A95E9F70895AC0188E605D0842F03D0D3
:100B400089E601D0852F0FD028E030E0382780FBE0
:100B5000869506D02A95D1F730FB02D000D0689454
:100B600023982B9A16F02B98239AE0914C01F09140
:100B70004D013197F0F72D9AE3B1E3FBE0914C0181
:100B8000F0914D013197F0F72D98089520ECE7DFB3
:100B900046F42A95E1F780E02AE1E5DF2A95E9F7B6
:100BA000DECF28E030E0DBDF869587F938272A950D
:100BB000D1F7D5DF27F9322772F3D1DFD0CFDB01B0
:100BC000742FB9DF84E2BFDFE1DF8D937A95D1F72F
:100BD0000895DB01742FAFDF83EFB5DF8DE1B3DF65
:100BE00084E6B1DF8D91AFDF82E7ADDFCFDF8078C4
:100BF000D9F77A9589F708952C982B9824982398FB
:100C00000895249A84E18A95F1F70895239A84E15E
:100C10008A95F1F7249884E18A95F1F7239884E185
:100C20008A95F1F7249A84E18A95F1F70895239A39
:100C3000249A84E18A95F1F7239884E18A95F1F763
:100C4000249884E18A95F1F7089598E00BC02498E0
:100C500024E12A95F1F7239824E12A95F1F7880FEA
:100C6000915029F0239A87FDF2CF249AF1CF239A4D
:100C7000249884E18A95F1F7239824E12A95F1F7E5
:100C800093B19295917081E089270895282F239A36
:100C9000249834E13A95F1F7239884E18A95F1F7A5
:100CA00083B18295817097E0239A34E13A95F1F708
:100CB000239834E13A95F1F7880F1C99816091509F
:100CC00099F7239A222349F0249894E19A95F1F711
:100CD000239834E13A95F1F70895249A94E19A958E
:100CE000F1F7239834E13A95F1F70895613011F066
:100CF0008E7FABCF8160A9CF2A982D9834DD2A9AB8
:100D00002B9A31DD2D9A2FDD2D982DCD1F93CF936A
:100D1000DF93EC01162F611108C018C02B9A2D9A91
:100D200022DD2D9820DD115089F02FEF210FCE010B
:100D300002C0969587952A95E2F780FDEFCF2B9814
:100D40002D9A11DD2D980FDD115079F7DF91CF919C
:100D50001F910895CF93DF93D8E0C0E0CC0F2D9A78
:100D600002DD2D9800DD1C99CF5FD150B9F78C2F93
:100D7000DF91CF9108952A982D98F5CC2A9A88E290
:100D80008A95F1F7F0DC1C9903C02A9881E0089558
:100D90002A9880E00895CF93DF93EC0129812130D8
:100DA00009F46CC0223309F475C0233309F44BC035
:100DB000243309F47CC0263409F40DC1293409F424
:100DC0000FC1273409F4A3C0283409F4C0C02D355D
:100DD00009F4D9C02C3509F481C02E3509F479C144
:100DE000223009F483C1233009F42AC1243009F4E4
:100DF00001C1273009F447C1253009F4EDC126307F
:100E000009F47DC1283009F4BBC1293009F421C29D
:100E10002A3009F430C22B3009F475C22C3009F4A1
:100E20005CC22D3009F4A6C12E3009F482C22F30E5
:100E300009F4EDC1203109F422C22F3709F441C26F
:100E400080E090E012C02A988A81809303018F810C
:100E500090E0982F88273E81832B90930C018093FC
:100E60000B01209313018FEF9FEF24E131E03093CA
:100E70002B0120932A01DF91CF910895329B14C05A
:100E80008091120109DC10921101419874DC80E01C
:100E900090E0EBCF329B1FC080911201FDDB4198A7
:100EA00092DC80E090E0E1CF85E0F6DBECCF2A98A1
:100EB0008A81809303018F8190E0982F88272E816B
:100EC000822B90930C0180930B0182E3809313019A
:100ED0008FEF9FEFCACF85E0DFDBE1CF0DDF8B81A6
:100EE00090E0982F88272A816C81822B0FDF8F81D9
:100EF00090E0982F88272E81822B90930C0180936D
:100F00000B0189E3809313018FEF9FEFAECF79DE62
:100F100060E08A81EBDE8B81823009F4E3C08823B4
:100F200011F08C8192DE72DE61E08A81DFDE8F81DA
:100F300090E0982F88272E81822B90930C0180932C
:100F40000B0186E3809313018FEF9FEF8ECF59DE65
:100F500060E08A81CBDE8B81823009F4CCC08823AB
:100F600011F08C8172DE8F8190E0982F88272E817E
:100F7000822B90930C0180930B0185E380931301E6
:100F80008FEF9FEF72CFB8DE8B8190E0982F88278C
:100F90002A81822B90930601809305016C812D811B
:100FA00030E04EEF460F02C0220F331F4A95E2F7A2
:100FB000822B932BABDE8F8190E0982F88272E8198
:100FC000822B90930C0180930B018AE38093130191
:100FD0008FEF9FEF4ACF41980FDE80E090E045CF42
:100FE00010DE60E08A8182DE8093140120DE81E0E1
:100FF00090E03BCF80911101811112C04B8150E0F4
:10100000542F44278A81482B662757FD6095762FF9
:1010100040930D0150930E0160930F0170931001E6
:101020008F8190E0982F88272E81822B90930C013E
:1010300080930B0182E0809313018FEF9FEF15CF18
:10104000E0914701F09148018A810995809314014C
:10105000E0914701F09148018B810995809315013A
:10106000E0914701F09148018C8109958093160128
:10107000E0914701F09148018D8109958093170116
:1010800084E090E0F2CE80911101811112C04B8179
:1010900050E0542F44278A81482B662757FD6095DE
:1010A000762F40930D0150930E0160930F017093C2
:1010B00010018F8190E0982F88272E81822B9093AA
:1010C0000C0180930B0183E0809313018FEF9FEF5E
:1010D000CCCE54DE813009F44EC01092140181E070
:1010E00090E0C3CE8D81B1DD8B8119CF80DB419A39
:1010F00080E090E0BACE8D81A8DD8B8130CF8091E9
:101100001101811112C08B8190E0982F88272A81CC
:10111000822BAA2797FDA095BA2F80930D0190935B
:101120000E01A0930F01B09310013C812D81822FFD
:101130008F7080930801822F807F40E1849FC001DF
:101140001124830F911D90930A018093090120FDC2
:10115000809307018F8190E0982F88272E81822B22
:1011600090930C0180930B0181E0809313018FEF2A
:101170009FEF7BCE0BDD8093140181E090E075CE74
:1011800080911101811112C08B8190E0982F8827E6
:101190002A81822BAA2797FDA095BA2F80930D0153
:1011A00090930E01A0930F01B093100110920A01C9
:1011B00010920901109208018F8190E0982F8827E2
:1011C0002E81822B90930C0180930B0184E08093FD
:1011D00013018FEF9FEF49CE12DB80931401882318
:1011E00099F0C0911201C11102C0C9E003C0C15001
:1011F000C33050F08C2F50DA02DB80931401811140
:10120000F6CF8FEF8C0F48DA81E090E02ECE8B8105
:1012100090E0982F88272A81822BAA2797FDA095F6
:10122000BA2F80930D0190930E01A0930F01B093FC
:1012300010018F8190E0982F88272E81822B909328
:101240000C0180930B0185E0809313018FEF9FEFDA
:101250000CCE81E0809311018A819B81AC81BD819C
:1012600080930D0190930E01A0930F01B093100194
:1012700080E090E0FACD8A81809312012ECF8B819D
:1012800090E0982F88272A81822BAA2797FDA09586
:10129000BA2F80930D0190930E01A0930F01B0938C
:1012A00010018F8190E0982F88272E81822B9093B8
:1012B0000C0180930B0186E0809313018FEF9FEF69
:1012C000D4CD81E080931401109215011092160183
:1012D0008093170184E090E0C8CD80EC34DC80E09E
:1012E00032DC8AE014DC2A9A85E011DC2A9885E059
:1012F0000EDC84B1837D84B985B1837D85B9419A43
:1013000080E090E0B2CD8B8190E0982F88272A81F1
:10131000822B90934D0180934C012A9A229A83E06C
:10132000F6DB2A98419880E1F2DBFDDB80E090E07B
:101330009CCD8A8108DC80E090E097CDEF92FF920F
:101340000F931F93CF93DF93F62E409113012EEF4F
:10135000240F223008F452C0453009F4EFC0433363
:1013600071F0493309F4C4C0463309F48DC08FEFDE
:10137000DF91CF911F910F91FF90EF9008952091F1
:101380000B0130910C01462F50E02417350708F46B
:10139000F22EFF20B9F0182FEC01E0914701F091F7
:1013A000480180E00995899320910B0130910C014F
:1013B0002150310930930C0120930B018C2F811B9C
:1013C0008F1558F3232B91F48091030181112A9AF0
:1013D000109213018F2DDF91CF911F910F91FF90EC
:1013E000EF900895C901892B09F4A3C08F2DDF91D7
:1013F000CF911F910F91FF90EF900895493309F419
:1014000077C0453009F49AC0662311F360910D014D
:1014100070910E0150910F0120911001EC01E12C0F
:1014200020C0CB0123DB888300910D0110910E01B8
:1014300020910F01309110010F5F1F4F2F4F3F4F31
:1014400000930D0110930E0120930F0130931001B2
:10145000E3942196EF1461F040911301B801522FEB
:10146000232F4230F1F6852F922F17DA8883DCCFB5
:1014700087E08E1508F0ACCF8E2DDF91CF911F91B4
:101480000F91FF90EF90089520910B0130910C0186
:10149000462F50E02417350708F4F22EFF2019F1EB
:1014A000182FEC01C9010CC081E0F0DB8883219684
:1014B0008C2F811B8F1598F480910B0190910C015A
:1014C000019790930C0180930B01892B69F380E0C5
:1014D000DDDB888321968C2F811B8F1568F320918B
:1014E0000B0130910C01232B09F080CFA0DB70CFD2
:1014F00020910B0130910C014F2D50E0241735073E
:1015000008F4F22EFF2009F46DCF182FEC0122DC35
:10151000899380910B0190910C01019790930C019C
:1015200080930B012C2F211B2F1588F3892B09F099
:101530005DCF21DC109213018F2D1ACF4F2DBC01EE
:1015400080910D0190910E013ADB00910D011091F7
:101550000E0120910F01309110010F0D111D211D61
:10156000311D00930D0110930E0120930F01309354
:1015700010018F2DFDCEDF92EF92FF920F931F93FC
:10158000CF93DF93FC01F62E409113014130E9F037
:10159000842F8D7F843099F0842F877F823361F090
:1015A000453309F4ACC08FEFDF91CF911F910F91BC
:1015B000FF90EF90DF900895423309F4C5C04A339D
:1015C00009F4EEC0463009F416C1FF2009F485C0C5
:1015D00050910D0170910E0180910F0190911001B9
:1015E000EF01E12CD12C50C02091090130910A016A
:1015F000232B09F054C021E04881652F83D9209125
:101600000B0130910C012150310930930C012093D2
:101610000B01232BE1F4109213018091080181FF4B
:101620003BC02091070130E08091090190910A01AF
:101630002817390789F160910D0170910E01809191
:101640000F01909110014881BAD9DD24D394009103
:101650000D0110910E0120910F01309110010F5FCB
:101660001F4F2F4F3F4F00930D0110930E012093FA
:101670000F0130931001E3942196EF14B9F14091DA
:101680001301502F712FC901413009F4ADCF68818A
:10169000852F972F10DAB3CFDD24D394D8CF20E055
:1016A0004881652F2FD980910701815080930701D0
:1016B0008111A5CF60910D0170910E0180910F01F4
:1016C0009091100148817BD9809109018093070195
:1016D00096CFC901892B09F489C080E0DF91CF91B1
:1016E0001F910F91FF90EF90DF9008958D2DDF9166
:1016F000CF911F910F91FF90EF90DF90089520916F
:101700000B0130910C01462F50E02417350708F4E7
:10171000F22EFF2009F49BC01E2FEF01899195DA6C
:1017200080910B0190910C01019790930C01809393
:101730000B012C2F211B2F1588F3892B71F677DADB
:101740001092130181E0CACF20910B0130910C015E
:10175000462F50E02417350708F4F22EFF2009F435
:1017600078C01E2FEF01E0914701F0914801899167
:10177000099580910B0190910C01019790930C01B8
:1017800080930B012C2F211B2F1568F3892B09F057
:10179000A4CF80910301882339F12A9A81E09ECF5A
:1017A00020910B0130910C014F2D50E0241735078B
:1017B00008F4F22EFF2009F48CCF1E2FEF0189913F
:1017C00068E090E0A3DA80910B0190910C01019701
:1017D00090930C0180930B012C2F211B2F1578F374
:1017E000892B09F07ACF02C081E078CFC4DA109259
:1017F000130181E073CF4F2DBF0180910D019091B6
:101800000E01E7D980910D0190910E01A0910F0179
:10181000B09110018F0D911DA11DB11D80930D017F
:1018200090930E01A0930F01B093100180910B01D2
:1018300090910C018F19910990930C0180930B01E9
:10184000892B09F04ACF1092130181E047CFC901DB
:1018500074CFC9019BCF1BB815B883EF8AB98FEF3E
:1018600084B914B883E087B99EEF98B985BD74D563
:0C187000789425D424D4FDCFF894FFCF49
:04187C00FFFF5A010F
:00000001FF
