:100000003BC0C3C154C053C052C051C050C04FC008
:100010004EC04DC04CC04BC04AC049C048C047C08C
:1000200046C045C044C00902120001010080190900
:10003000040000000000000012011001FF00000891
:10004000C016DC050401010200010E035500530037
:1000500042006100730070001C0377007700770096
:100060002E00660069007300630068006C002E00BB
:10007000640065000403090411241FBECFE5D4E029
:10008000DEBFCDBF10E0A0E6B0E0ECE6F8E102C0D4
:1000900005900D92A436B107D9F720E0A4E6B0E0B0
:1000A00001C01D92AE3AB207E1F7CDDBDDCBA8CFA0
:1000B000CF93DF9360918C00635067FD13C08091F4
:1000C0008900CCE0D0E0C81BD109C057DF4F809138
:1000D00088008D3209F461C08091640087FDB0C052
:1000E00010928C008091620084FF4AC08091600071
:1000F000909161008F3F2FEF920709F441C0893042
:10010000910508F479C0089790936100809360008E
:1001100080917C0098E8892780937C0068E080913A
:10012000640087FD1DC040918A0050918B0086FFBE
:100130007EC0ADE7B0E0FA01962F24912D93319661
:100140009150D9F72FEF260F30E02F5F3F4F240F4C
:10015000351F30938B0020938A00C4E0C60F5AC02D
:100160008DE790E0E3D8682F893008F4B8C08FEFAE
:100170009FEF9093610080936000CEE1C093620096
:1001800094E186B3837031F49150D9F710928D00C9
:1001900010928700DF91CF910895683009F0A0CFC9
:1001A00083EC80937C008AE5809362001092640067
:1001B0008881807609F050C09A81109285008981EB
:1001C000811154C01092860025E830E082E090E072
:1001D00030938B0020938A008F3F2FEF920709F412
:1001E0003EC02E813F812817390708F4C90190933A
:1001F00061008093600074CF1092610010926000E3
:1002000090917C0028E8922790937C00682F8111C0
:1002100086CFC4E08DE790E0B4D0CC3009F4AECF07
:100220008FEF9FEF9093610080936000A7CFDA017A
:10023000EDE7F0E0962F2D9121939150E1F782CFD9
:10024000CE0191D98F3F21F1882309F449CF109233
:1002500061001092600044CFCE0195D5BDCF2881BA
:1002600027FD21C020E820936400C1CF8530A1F094
:10027000863041F1883009F18930C1F031E020E069
:100280008A3009F030E0832F922F25E830E0A0CFAC
:100290008EE18093620024CF90938D0025E830E0BA
:1002A00080E090E095CF8E819F81DCCF90938F008E
:1002B00025E830E080E090E08BCF2FE830E081E06F
:1002C00090E086CF8B81813009F18230B1F08330AC
:1002D00049F080E090E020E4209364007DCFC4E00A
:1002E000C80F98CF91111BC084E790E090938B00CA
:1002F00080938A0084E090E0EECF86E290E09093D5
:100300008B0080938A0082E190E0E5CF88E390E063
:1003100090938B0080938A0082E190E0DCCF913053
:1003200059F09230B1F68AE490E090938B0080937C
:100330008A008EE090E0CFCF88E590E090938B002C
:1003400080938A008CE190E0C6CF85B7836085BF3B
:100350008BB780648BBF0895A82FB92F80E090E001
:1003600041E050EA609530E009C02D9182279795D1
:10037000879510F084279527305EC8F36F5FA8F348
:100380000895EADF8D939D930895CF93CFB7CF93D0
:10039000C395B09BE9F7B09B09C0B09B07C0B09B69
:1003A00005C0B09B03C0B09B01C0A1C0DF93C0914A
:1003B0008900DD27C057DF4FB09B02C0DF91EBCF34
:1003C0002F930F931F9306B32FEF00FB20F94F934A
:1003D0003F9316B34FEF012700FB21F93BE031C0FB
:1003E0004E7F012F16B3216028C0102F4D7F226051
:1003F000000006B329C04B7F2460012F000016B314
:100400002BC016B3477F28602AC04F7E06B32061F9
:100410002CC04F7D16B320622FC04F7B06B32064E3
:1004200032C0422706B349934FEF0000102710FB5C
:1004300020F916B31370C9F1297F91F2012700FB4F
:1004400021F906B3237F89F2315058F1102710FBB0
:1004500022F916B3277E79F2012700FB23F92F7CBE
:1004600081F206B3102710FB24F92F7971F200C036
:1004700016B3012700FB25F92F7359F200C006B30C
:10048000102710FB26F9223040F200C016B30127D6
:1004900000FB27F9243028F64F77206816B30000B8
:1004A000F9CF10E41ABF002717C03B503195C31B8A
:1004B000D04010E41ABF0881033CE9F00B34D9F0B6
:1004C000209187001981110F1213EDCF093641F1E8
:1004D0000D3211F0013E39F700938E003F914F919C
:1004E0001F910F912F91DF91CAB7C6FD51CFCF91C8
:1004F000CFBFCF91189520918E00222379F31091D0
:100500008C00112311F5343012F130938C002093BC
:100510008800109189003BE0311B3093890017C09F
:1005200000918C0001308CF40AE53091620034FDBA
:1005300010C000936200CCE7D0E00FC02795A8F46C
:100540005150A9F4220F0000F9CF4AE503C042ED53
:1005500001C0432FC4E1D0E032E017B31360C09A6A
:1005600017BB08B320E413E05F93012756E008BBF4
:10057000279520F4515021F4220FF9CF012756E09E
:1005800000003B5A08BBD0F2279528F4515029F4BB
:10059000220F0000F9CF012756E0279508BB20F471
:1005A000515021F4220FF9CF012756E0299133232E
:1005B00008BB21F60C7F10918D00110FC651D04061
:1005C00008BB11F01093870010E41ABF016017B345
:1005D0001C7F402F4C7F5F9100C000C008BB17BB41
:1005E00048BB7CCF582F48E080E057FD18C0C39827
:1005F000550F880FB4998F5FC59A32B72091AB0021
:1006000092B7931B9217E0F3C59832B72091AB00D5
:1006100092B7931B9217E0F3415039F70895C39AAC
:10062000E7CF8FB9779BFECF8FB1089521E19695E3
:100630008795779567952A95D1F72091AA00261777
:10064000D9F06093AA00E091A700F091A8008DE492
:100650000995E091A700F091A80080E00995E0914C
:10066000A700F091A8008091AA000995E091A70049
:10067000F091A80080E0099408958091A9008DB9B7
:100680008091A6008EB908958823A1F08830D0F516
:1006900022EF32E03093A8002093A7008430F1F0DD
:1006A00008F18630C1F030F18730A1F483E0809307
:1006B000AB00089581E193E09093A8008093A70098
:1006C00081E08093AB0082E58093A90081E0809374
:1006D000A600089580EC8093AB00089588E1809394
:1006E000AB000895823051F08330A1F780E380930E
:1006F000AB0008958CE08093AB00089580E6809372
:10070000AB00089521E133E03093A8002093A700C7
:100710001092A60091E09093AB008B3059F090F4CA
:10072000883061F0893079F682E58093A9000895D8
:100730009093A60081E58093A900089583E58093B6
:10074000A90008958C30A1F38D3009F0BCCF80E56D
:100750008093A900089522B79091AB0082B7821BC5
:100760008917E0F3089587B38C6287BBC298C59858
:1007700022B79091AB0082B7821B8917E0F3C29A2F
:1007800022B79091AB0082B7821B8917E0F3C29821
:100790008091A7009091A8008151934019F0109288
:1007A000AA0008958091A9008DB98091A6008EB904
:1007B0001092AA00089587B38C6287BB8091A7002E
:1007C0009091A8008151934011F0C29A08958091B0
:1007D000A9008DB98091A6008EB9C29A089587B3F9
:1007E000837D87BB88B3837D88BB1DB80895CF9375
:1007F000DF93C0E2E091A700F091A8008CEA099590
:10080000E091A700F091A80083E50995E091A70089
:10081000F091A80080E00995D82FE091A700F09111
:10082000A80080E00995D33561F11DB822B79091F9
:10083000AB0082B7821B8917E0F3C29A22B790916E
:10084000AB0082B7821B8917E0F3C29822B7909160
:10085000AB0082B7821B8917E0F38091A7009091CB
:10086000A8008151934031F0C15021F681E0DF9121
:10087000CF9108958091A9008DB98091A6008EB97D
:10088000F3CF80E0DF91CF910895CF92DF92EF9286
:10089000FF926B017C01CADE8C2D8170880F880F5E
:1008A000880FE091A700F091A80080620995D70118
:1008B000C60139E0B695A795979587953A95D1F7F2
:1008C000E091A700F091A8000995D701C601B6955F
:1008D000A79597958795E091A700F091A8000995B5
:1008E000E091A700F091A80080E0FF90EF90DF90EA
:1008F000CF900994CF92DF92EF92FF920F931F93C4
:10090000CF93DF931F92CDB7DEB76B017C01142F1D
:1009100029838CDE8C2D8170880F880F880FE091E1
:10092000A700F091A80080640995D701C60159E09D
:10093000B695A795979587955A95D1F7E091A70019
:10094000F091A8000995D701C601B695A79597958E
:100950008795E091A700F091A8000995E091A70084
:10096000F091A800812F099529812223A9F01F3732
:1009700089F002B71EE1C701B60187DF8F3761F446
:1009800082B7801B8D3310F002B711501111F3CFD5
:1009900081E003C08FE0B3D080E00F90DF91CF9172
:1009A0001F910F91FF90EF90DF90CF900895CF921D
:1009B000DF92EF92FF920F931F93CF93DF931F92DB
:1009C000CDB7DEB76B017C01498330DEE091A70033
:1009D000F091A8008CE40995D701C60179E0B6959D
:1009E000A795979587957A95D1F7E091A700F09113
:1009F000A8000995D701C601B695A7959795879543
:100A0000E091A700F091A8000995E091A700F0916E
:100A1000A80080E0099549814F3FE1F002B71EE14F
:100A2000C701B60132DF8F3F99F482B7801B8D3347
:100A300010F002B711501111F3CF81E00F90DF9148
:100A4000CF911F910F91FF90EF90DF90CF9008957D
:100A500080E0F4CF8FE053D080E0F0CF1F93CF93AE
:100A6000DF931F92CDB7DEB7182FE091A700F0916A
:100A7000A80080EA99830995E091A700F091A80069
:100A80009981892F0995E091A700F091A800812F05
:100A90000995E091A700F091A80080E00F90DF9108
:100AA000CF911F9109941F93CF93DF9300D0CDB7BF
:100AB000DEB7182FE091A700F091A80080EC6A83C0
:100AC00099830995E091A700F091A8009981892F59
:100AD0000995E091A700F091A800812F0995E09178
:100AE000A700F091A8006A81862F09958EE107D0B2
:100AF00080E00F900F90DF91CF911F910895882390
:100B000049F030E022B792B7921B9C33E0F33F5F8D
:100B10003813F8CF0895BD9ABB98C39A50E217D006
:100B20005A95E9F70895AC0188E605D0842F03D0E3
:100B300089E601D0852F0FD028E030E0382780FBF0
:100B4000869506D02A95D1F730FB02D000D0689464
:100B5000BB98C39A16F0C398BB9AE091AC00F09191
:100B6000AD003197F0F7C59AE6B3E3FBE091AC0036
:100B7000F091AD003197F0F7C598089520ECE7DFCC
:100B800046F42A95E1F780E02AE1E5DF2A95E9F7C6
:100B9000DECF28E030E0DBDF869587F938272A951D
:100BA000D1F7D5DF27F9322772F3D1DFD0CFDB01C0
:100BB000742FB9DF84E2BFDFE1DF8D937A95D1F73F
:100BC0000895DB01742FAFDF83EFB5DF8DE1B3DF75
:100BD00084E6B1DF8D91AFDF82E7ADDFCFDF8078D4
:100BE000D9F77A9589F70895C498C398BC98BB98AB
:100BF0000895BC9A84E18A95F1F70895BB9A84E13F
:100C00008A95F1F7BC9884E18A95F1F7BB9884E165
:100C10008A95F1F7BC9A84E18A95F1F70895BB9A19
:100C2000BC9A84E18A95F1F7BB9884E18A95F1F743
:100C3000BC9884E18A95F1F7089598E00BC0BC98C0
:100C400024E12A95F1F7BB9824E12A95F1F7880F62
:100C5000915029F0BB9A87FDF2CFBC9AF1CFBB9A95
:100C6000BC9884E18A95F1F7BB9824E12A95F1F7C5
:100C700096B39295917081E089270895282FBB9AA9
:100C8000BC9834E13A95F1F7BB9884E18A95F1F785
:100C900086B38295817097E0BB9A34E13A95F1F77B
:100CA000BB9834E13A95F1F7880FB499816091507F
:100CB00099F7BB9A222349F0BC9894E19A95F1F7F1
:100CC000BB9834E13A95F1F70895BC9A94E19A956E
:100CD000F1F7BB9834E13A95F1F70895613011F0DE
:100CE0008E7FABCF8160A9CFC298C59834DDC29A00
:100CF000C39A31DDC59A2FDDC5982DCD1F93CF93B3
:100D0000DF93EC01162F611108C018C0C39AC59A71
:100D100022DDC59820DD115089F02FEF210FCE0183
:100D200002C0969587952A95E2F780FDEFCFC3988C
:100D3000C59A11DDC5980FDD115079F7DF91CF917C
:100D40001F910895CF93DF93D8E0C0E0CC0FC59AF0
:100D500002DDC59800DDB499CF5FD150B9F78C2F73
:100D6000DF91CF910895C298C598F5CCC29A88E2D8
:100D70008A95F1F7F0DCB49903C0C29881E0089538
:100D8000C29880E00895CF93DF93EC012981213050
:100D900009F46CC0223309F475C0233309F44BC045
:100DA000243309F47CC0263409F40DC1293409F434
:100DB0000FC1273409F4A3C0283409F4C0C02D356D
:100DC00009F4D9C02C3509F481C02E3509F479C154
:100DD000223009F483C1233009F42AC1243009F4F4
:100DE00001C1273009F447C1253009F4EDC126308F
:100DF00009F47DC1283009F4BBC1293009F421C2AE
:100E00002A3009F430C22B3009F475C22C3009F4B1
:100E10005CC22D3009F4A6C12E3009F482C22F30F5
:100E200009F4EDC1203109F422C22F3709F441C27F
:100E300080E090E012C0C2988A81809363008F8125
:100E400090E0982F88273E81832B90936C008093AD
:100E50006B00209373008FEF9FEF24E730E0309317
:100E60008B0020938A00DF91CF9108959A9B14C044
:100E70008091720009DC10927100A99874DC80E006
:100E800090E0EBCF9A9B1FC080917200FDDBA99888
:100E900092DC80E090E0E1CF85E0F6DBECCFC29819
:100EA0008A81809363008F8190E0982F88272E811C
:100EB000822B90936C0080936B0082E3809373008D
:100EC0008FEF9FEFCACF85E0DFDBE1CF0DDF8B81B6
:100ED00090E0982F88272A816C81822B0FDF8F81E9
:100EE00090E0982F88272E81822B90936C0080931E
:100EF0006B0089E3809373008FEF9FEFAECF79DEB5
:100F000060E08A81EBDE8B81823009F4E3C08823C4
:100F100011F08C8192DE72DE61E08A81DFDE8F81EA
:100F200090E0982F88272E81822B90936C008093DD
:100F30006B0086E3809373008FEF9FEF8ECF59DEB7
:100F400060E08A81CBDE8B81823009F4CCC08823BB
:100F500011F08C8172DE8F8190E0982F88272E818E
:100F6000822B90936C0080936B0085E380937300D9
:100F70008FEF9FEF72CFB8DE8B8190E0982F88279C
:100F80002A81822B90936600809365006C812D816D
:100F900030E04EEF460F02C0220F331F4A95E2F7B2
:100FA000822B932BABDE8F8190E0982F88272E81A8
:100FB000822B90936C0080936B008AE38093730084
:100FC0008FEF9FEF4ACFA9980FDE80E090E045CFEA
:100FD00010DE60E08A8182DE8093740020DE81E092
:100FE00090E03BCF80917100811112C04B8150E0A5
:100FF000542F44278A81482B662757FD6095762F0A
:1010000040936D0050936E0060936F00709370007A
:101010008F8190E0982F88272E81822B90936C00EF
:1010200080936B0082E0809373008FEF9FEF15CF6A
:10103000E091A700F091A8008A810995809374003F
:10104000E091A700F091A8008B810995809375002D
:10105000E091A700F091A8008C810995809376001B
:10106000E091A700F091A8008D8109958093770009
:1010700084E090E0F2CE80917100811112C04B812A
:1010800050E0542F44278A81482B662757FD6095EE
:10109000762F40936D0050936E0060936F007093B5
:1010A00070008F8190E0982F88272E81822B90935B
:1010B0006C0080936B0083E0809373008FEF9FEF51
:1010C000CCCE54DE813009F44EC01092740081E021
:1010D00090E0C3CE8D81B1DD8B8119CF80DBA99AE1
:1010E00080E090E0BACE8D81A8DD8B8130CF8091F9
:1010F0007100811112C08B8190E0982F88272A817E
:10110000822BAA2797FDA095BA2F80936D0090930C
:101110006E00A0936F00B09370003C812D81822FF0
:101120008F7080936800822F807F40E1849FC00190
:101130001124830F911D90936A008093690020FD14
:10114000809367008F8190E0982F88272E81822BD3
:1011500090936C0080936B0081E0809373008FEF1D
:101160009FEF7BCE0BDD8093740081E090E075CE25
:1011700080917100811112C08B8190E0982F882797
:101180002A81822BAA2797FDA095BA2F80936D0004
:1011900090936E00A0936F00B093700010926A005D
:1011A00010926900109268008F8190E0982F882734
:1011B0002E81822B90936C0080936B0084E080934F
:1011C00073008FEF9FEF49CE12DB8093740088236A
:1011D00099F0C0917200C11102C0C9E003C0C150B2
:1011E000C33050F08C2F50DA02DB809374008111F1
:1011F000F6CF8FEF8C0F48DA81E090E02ECE8B8116
:1012000090E0982F88272A81822BAA2797FDA09506
:10121000BA2F80936D0090936E00A0936F00B093EF
:1012200070008F8190E0982F88272E81822B9093D9
:101230006C0080936B0085E0809373008FEF9FEFCD
:101240000CCE81E0809371008A819B81AC81BD814D
:1012500080936D0090936E00A0936F00B093700028
:1012600080E090E0FACD8A81809372002ECF8B814E
:1012700090E0982F88272A81822BAA2797FDA09596
:10128000BA2F80936D0090936E00A0936F00B0937F
:1012900070008F8190E0982F88272E81822B909369
:1012A0006C0080936B0086E0809373008FEF9FEF5C
:1012B000D4CD81E080937400109275001092760076
:1012C0008093770084E090E0C8CD80EC34DC80E04F
:1012D00032DC8AE014DCC29A85E011DCC29885E039
:1012E0000EDC87B3837D87BB88B3837D88BBA99AD7
:1012F00080E090E0B2CD8B8190E0982F88272A8102
:10130000822B9093AD008093AC00C29ABA9A83E08E
:10131000F6DBC298A99880E1F2DBFDDB80E090E08B
:101320009CCD8A8108DC80E090E097CDEF92FF921F
:101330000F931F93CF93DF93F62E409173002EEF00
:10134000240F223008F452C0453009F4EFC0433373
:1013500071F0493309F4C4C0463309F48DC08FEFEE
:10136000DF91CF911F910F91FF90EF900895209101
:101370006B0030916C00462F50E02417350708F4BD
:10138000F22EFF20B9F0182FEC01E091A700F091A8
:10139000A80080E00995899320916B0030916C0042
:1013A0002150310930936C0020936B008C2F811BEE
:1013B0008F1558F3232B91F4809163008111C29A09
:1013C000109273008F2DDF91CF911F910F91FF909D
:1013D000EF900895C901892B09F4A3C08F2DDF91E7
:1013E000CF911F910F91FF90EF900895493309F429
:1013F00077C0453009F49AC0662311F360916D00FF
:1014000070916E0050916F0020917000EC01E12C02
:1014100020C0CB0123DB888300916D0010916E000A
:1014200020916F00309170000F5F1F4F2F4F3F4F83
:1014300000936D0010936E0020936F003093700046
:10144000E3942196EF1461F040917300B801522F9C
:10145000232F4230F1F6852F922F17DA8883DCCFC5
:1014600087E08E1508F0ACCF8E2DDF91CF911F91C4
:101470000F91FF90EF90089520916B0030916C00D8
:10148000462F50E02417350708F4F22EFF2019F1FB
:10149000182FEC01C9010CC081E0F0DB8883219694
:1014A0008C2F811B8F1598F480916B0090916C00AC
:1014B000019790936C0080936B00892B69F380E017
:1014C000DDDB888321968C2F811B8F1568F320919B
:1014D0006B0030916C00232B09F080CFA0DB70CF24
:1014E00020916B0030916C004F2D50E02417350790
:1014F00008F4F22EFF2009F46DCF182FEC0122DC46
:10150000899380916B0090916C00019790936C008F
:1015100080936B002C2F211B2F1588F3892B09F04A
:101520005DCF21DC109273008F2D1ACF4F2DBC019F
:1015300080916D0090916E003ADB00916D001091EA
:101540006E0020916F00309170000F0D111D211D54
:10155000311D00936D0010936E0020936F00309347
:1015600070008F2DFDCEDF92EF92FF920F931F93AD
:10157000CF93DF93FC01F62E409173004130E9F0E8
:10158000842F8D7F843099F0842F877F823361F0A0
:10159000453309F4ACC08FEFDF91CF911F910F91CC
:1015A000FF90EF90DF900895423309F4C5C04A33AD
:1015B00009F4EEC0463009F416C1FF2009F485C0D5
:1015C00050916D0070916E0080916F00909170004D
:1015D000EF01E12CD12C50C02091690030916A00BC
:1015E000232B09F054C021E04881652F83D9209135
:1015F0006B0030916C002150310930936C002093C6
:101600006B00232BE1F4109273008091680081FF3E
:101610003BC02091670030E08091690090916A00A2
:101620002817390789F160916D0070916E008091E3
:101630006F00909170004881BAD9DD24D394009155
:101640006D0010916E0020916F00309170000F5F5F
:101650001F4F2F4F3F4F00936D0010936E0020934C
:101660006F0030937000E3942196EF14B9F140912C
:101670007300502F712FC901413009F4ADCF68813B
:10168000852F972F10DAB3CFDD24D394D8CF20E065
:101690004881652F2FD98091670081508093670022
:1016A0008111A5CF60916D0070916E0080916F00E7
:1016B0009091700048817BD9809169008093670088
:1016C00096CFC901892B09F489C080E0DF91CF91C1
:1016D0001F910F91FF90EF90DF9008958D2DDF9176
:1016E000CF911F910F91FF90EF90DF90089520917F
:1016F0006B0030916C00462F50E02417350708F43A
:10170000F22EFF2009F49BC01E2FEF01899195DA7C
:1017100080916B0090916C00019790936C00809386
:101720006B002C2F211B2F1588F3892B71F677DA8C
:101730001092730081E0CACF20916B0030916C0051
:10174000462F50E02417350708F4F22EFF2009F445
:1017500078C01E2FEF01E091A700F091A8008991B9
:10176000099580916B0090916C00019790936C00AB
:1017700080936B002C2F211B2F1568F3892B09F008
:10178000A4CF80916300882339F1C29A81E09ECF73
:1017900020916B0030916C004F2D50E024173507DD
:1017A00008F4F22EFF2009F48CCF1E2FEF0189914F
:1017B00068E090E0A3DA80916B0090916C00019753
:1017C00090936C0080936B002C2F211B2F1578F3C6
:1017D000892B09F07ACF02C081E078CFC4DA109269
:1017E000730081E073CF4F2DBF0180916D00909108
:1017F0006E00E7D980916D0090916E00A0916F000E
:10180000B09170008F0D911DA11DB11D80936D00D1
:1018100090936E00A0936F00B093700080916B0066
:1018200090916C008F19910990936C0080936B00DC
:10183000892B09F04ACF1092730081E047CFC9018C
:1018400074CFC9019BCF12BA18BA83EF81BB8FEF57
:1018500087BB17BA83E084BB9EEF95BB83BF75D56A
:0C186000789426D425D4FDCFF894FFCF57
:04186C00FFFF5A011F
:00000001FF
